:100000000C9456000C9473000C9473000C947300C1
:100010000C9473000C9473000C9473000C94730094
:100020000C9473000C9473000C9473000C94730084
:100030000C9473000C9473000C9473000C94730074
:100040000C9473000C9473000C9473000C94730064
:100050000C9473000C9473000C9473000C94730054
:100060000C9473000C9473000C9473000C94730044
:100070000C9473000C9473000C9473000C94730034
:100080000C9473000C9473000C9473000C94730024
:100090000C9473000C9473000C9473000C94730014
:1000A0000C9473000C9473000C94730011241FBE05
:1000B000CFEFDAE0DEBFCDBF13E0A0E0B1E0E4E5D2
:1000C000F4E002C005900D92AE32B107D9F713E00B
:1000D000AEE2B3E001C01D92A833B107E1F70E9480
:1000E00043010C9428020C940000109237031092E4
:1000F000360308958091360390913703009719F0E5
:100100000197C1F53CC080912E0390912F03892B5C
:1001100089F080E49CE90197F1F781E090E0909309
:1001200033038093320390933703809336030E9406
:10013000C70104C010923303109232038091300340
:1001400090913103892B89F080E49CE90197F1F7C4
:1001500081E090E0909335038093340390933703CC
:10016000809336030E94C7010AC010923503109293
:10017000340305C01092370310923603089588E8BF
:1001800093E120E931E0F9013197F1F70197D9F7CF
:1001900008958091360390913703009721F00197DD
:1001A00009F062C033C00E94C70180E091E00E9464
:1001B0000A0281E060EF0E94750181E060EC0E941C
:1001C000750181E060EA0E94750181E060E90E94AA
:1001D000750181E068E00E9475018DE391E00E9465
:1001E0000A0281E068E00E94750181E060E90E94F6
:1001F000750181E060EA0E94750181E060EC0E9477
:10020000750181E060EF0E94750108950E94C701A9
:1002100088E491E00E940A0280E197E220E931E05F
:10022000F9013197F1F70197D9F70E94C7018AE4E4
:1002300091E00E940A0280E197E220E931E0F901B1
:100240003197F1F70197D9F70E94C7018CE491E04B
:100250000E940A0280E593EC20E931E0F901319730
:10026000F1F70197D9F708950E94C701109237035B
:100270001092360308958FE20E949601229A239AE3
:1002800020982198089580E8809361001092610081
:100290000E943B0183B190E08170907090932F0396
:1002A00080932E0383B190E082709070909331031D
:1002B000809330030E947A0080913203909133033F
:1002C000892B11F02A9A01C02A98809134039091C9
:1002D0003503892B11F02B9A01C02B98109237030C
:1002E000109236030E94C900D5CF95B18295880F30
:1002F000807E9F7D982B95B95F9827E030E070E075
:100300008F98CB01022E02C0959587950A94E2F74B
:1003100080FF02C02E9A01C02E988F9A2150304043
:100320008FEF2F3F380761F75F9A08951F93182FBB
:10033000579A249A259A269A879A2C985F9A2C9AEB
:1003400080E061E20E947501106880E0612F0E94E8
:10035000750180E064E00E94750180E064E10E9424
:10036000750180E06CE00E94750180E060E20E940F
:10037000750180E06CE00E94750180E060E40E94FD
:10038000750180E060E80E9475011F910895CF9388
:10039000DF9380E060E80E94750180E060E40E94E5
:1003A0007501C0E0D0E081E060E00E947501219617
:1003B00081E0C83FD807B9F7DF91CF9108950F9337
:1003C0001F93CF93DF93182F81E060E00E947501A7
:1003D000812F90E08097EC01CC0FDD1FCC0FDD1F4B
:1003E000C80FD91FC25BDE4F85E0189F8001112422
:1003F0000D541F4F81E069910E947501C017D1070C
:10040000C9F781E060E00E947501DF91CF911F91F3
:100410000F9108950F931F93CF93DF93182F092FF8
:1004200081E060E00E947501212F302FC901EC01AD
:1004300002C00E94DF0189918823D9F781E060E042
:100440000E947501DF91CF911F910F91089508953A
:04045000F894FFCF4E
:10045400202053434F524348454420202020204528
:10046400415254482020202020204C4143486C41D4
:100474004E20202020204E3838303136353620208A
:10048400507265737320427574746F6E0020546FDC
:100494002053746172742000330032003100000074
:1004A40000000000005F00000007000700147F1434
:1004B4007F14242A7F2A12231308646236495522A2
:1004C400500005030000001C2241000041221C00D2
:1004D40014083E081408083E0808005030000008BC
:1004E40008080808006060000020100804023E515B
:1004F40049453E00427F4000426151494621414501
:100504004B311814127F1027454545393C4A494957
:100514003001710905033649494936064949291EFE
:10052400003636000000563600000814224100143C
:10053400141414140041221408020151090632490A
:1005440079413E7E1111117E7F494949363E414130
:1005540041227F4141221C7F494949417F090909C0
:10056400013E4149497A7F0808087F00417F4100E4
:100574002040413F017F081422417F404040407F9A
:10058400020C027F7F0408107F3E4141413E7F09F7
:100594000909063E4151215E7F0919294646494908
:1005A400493101017F01013F4040403F1F2040206D
:1005B4001F3F4038403F631408146307087008075E
:1005C4006151494543007F41410002040810200065
:1005D40041417F00040201020440404040400001C8
:1005E40002040020545454787F4844443838444426
:1005F4004420384444487F3854545418087E090130
:10060400020C5252523E7F0804047800447D40009C
:100614002040443D007F1028440000417F40007C7E
:10062400041804787C0804047838444444387C145E
:10063400141408081414187C7C080404084854543E
:100644005420043F4440203C4040207C1C20402057
:100654001C3C4030403C44281028440C5050503C32
:100664004464544C44000836410000007F000000FC
:0E067400413608001008081008784641467804
:00000001FF
