:100000000C9456000C9473000C9473000C947300C1
:100010000C9473000C9473000C9473000C94730094
:100020000C9473000C9473000C9473000C94730084
:100030000C9473000C9473000C9473000C94730074
:100040000C9473000C9473000C9473000C94730064
:100050000C9473000C9473000C9473000C94730054
:100060000C9473000C9473000C9473000C94730044
:100070000C9473000C9473000C9473000C94730034
:100080000C9473000C9473000C9473000C94730024
:100090000C9473000C9473000C9473000C94730014
:1000A0000C9473000C9473000C94730011241FBE05
:1000B000CFEFDAE0DEBFCDBF14E0A0E0B1E0EAEDC3
:1000C000F9E102C005900D92A230B107D9F716E010
:1000D000A2E0B4E001C01D92AF31B107E1F70E9488
:1000E00075000C94EB0C0C940000AF92BF92CF9271
:1000F000DF92EF92FF920F931F93DF93CF93CDB7D1
:10010000DEB7C455D0400FB6F894DEBF0FBECDBFEA
:100110008FE30E94F6002098229A20E030E0AE01A2
:100120004F5F5F4FFA01E20FF31FC901880F991F5C
:10013000918380832E5F3F4F2A32310599F70E94C9
:10014000270190E9A92E91E0B92E8BE2E82EF12C3F
:10015000EC0EFD1E6E010894C11CD11C189BFECF35
:1001600088E592E0F5013197F1F70197D9F7189BEF
:10017000F5CF0E94D201C70165E170E00E941E0325
:1001800000E010E0F601E00FF11FD701A00FB11F52
:1001900080816C9141E00E947C010E5F1F4F0A320A
:1001A000110581F70E944702D9CF95B18295880F3A
:1001B000807E9F7D982B95B95F9827E030E070E0B6
:1001C0008F98CB01022E02C0959587950A94E2F78D
:1001D00080FF02C02E9A01C02E988F9A2150304085
:1001E0008FEF2F3F380761F75F9A08951F93182FFD
:1001F000579A249A259A269A879A2C985F9A2C9A2D
:1002000080E061E20E94D500106880E0612F0E94CA
:10021000D50080E064E00E94D50080E063E10E94A8
:10022000D50080E06CE00E94D50080E060E20E9492
:10023000D50080E06CE00E94D50080E060E40E9480
:10024000D50080E060E80E94D5001F910895CF930B
:10025000DF93C0E0D0E081E060E00E94D50021960D
:1002600081E0C83FD807B9F7DF91CF9108950F9388
:100270001F93CF93DF93182F81E060E00E94D50099
:10028000812F90E08097EC01CC0FDD1FCC0FDD1F9C
:10029000C80FD91FC050DF4F85E0189F800111247F
:1002A0000B591F4F81E069910E94D500C017D107FB
:1002B000C9F781E060E00E94D500DF91CF911F91E6
:1002C0000F910895CF93DF93EC0103C00E94370193
:1002D000219688818823D1F7DF91CF9108951F93CC
:1002E000182F606480E00E94D500106880E0612FC4
:1002F0000E94D5001F910895262F269526952695B4
:10030000677090E0442391F0E4E52E9FF001112402
:10031000E80FF91FE95DFB4F81E090E002C0880F14
:10032000991F6A95E2F72081282B12C0E4E52E9FE1
:10033000F0011124E80FF91FE95DFB4F81E090E027
:1003400002C0880F991F6A95E2F7809520812823C3
:1003500020830895DF92EF92FF920F931F93F82E60
:10036000062FD42EE22E841759F4162F06C08F2D97
:10037000612F41E00E947C011F5FE116C0F70CC0B5
:10038000621751F4182F06C0812F602F41E00E94A0
:100390007C011F5FD116C0F71F910F91FF90EF9066
:1003A000DF900895E7E2F4E0119286E0EF31F8077C
:1003B000D9F70895DF92EF92FF920F931F93182FB2
:1003C000062F41E00E947C01D02EDA94812F6D2D02
:1003D00041E00E947C01F02EF394812F6F2D41E0CB
:1003E0000E947C01E12EEA948E2D602F41E00E9454
:1003F0007C011F5F812F602F41E00E947C01812FD3
:100400006F2D41E00E947C018E2D6F2D41E00E94F6
:100410007C01812F6D2D41E00E947C018E2D6D2D80
:1004200041E00E947C011F910F91FF90EF90DF90BF
:1004300008950F931F93182F1750012F025F0BC0C1
:1004400080E0612F41E00E947C0181E0612F41E06A
:100450000E947C011F5F101799F71F910F9108955B
:100460000F931F93182F1750012F025F0BC083E5C6
:10047000612F41E00E947C0182E5612F41E00E94F2
:100480007C011F5F101799F71F910F910895CF936B
:10049000DF9380E060E00E946F01C7E2D4E081E07A
:1004A00069910E94D50086E0CF31D807C1F7DF916E
:1004B000CF910895DF93CF93CDB7DEB79A8D2B8D73
:1004C000898D882329F0992311F4822F211181E04D
:1004D000CF91DF910895FC0180E090E0A0E0B0E0D2
:1004E00084879587A687B787808B918BA28BB38BE8
:1004F0000895CF92DF92EF92FF920F931F93CF93C5
:10050000DF937C01162F072F97FF08C080EE92E043
:100510000E946201F094E194F108F394812F902FEE
:100520009C0169C069010894C108D10801E010E08C
:100530000AC0C801880F991F43E0000F111F4A9598
:10054000E1F7080F191F2150304099F7C701B80192
:100550000E945E0BEB016430710581F1653071051D
:1005600068F46130710509F161307105D8F06230CD
:100570007105F1F063307105A1F51DC0673071059B
:1005800031F16830710538F465307105D1F06630AD
:10059000710539F519C068307105E1F069307105F0
:1005A00001F51BC082EE92E01AC084EE92E017C003
:1005B00086EE92E014C088EE92E011C08AEE92E0DE
:1005C0000EC08CEE92E00BC08EEE92E008C080EF81
:1005D00092E005C082EF92E002C084EF92E00E94B8
:1005E0006201C09FC001C19F900DD09F900D11244A
:1005F000E81AF90A96012115310509F093CFDF9128
:10060000CF911F910F91FF90EF90DF90CF900895C1
:10061000EF92FF920F931F938C017B010E940D0CB0
:10062000E01AF10AB7010E945E0B9C01200F311FF6
:10063000C9011F910F91FF90EF9008952F923F9263
:100640004F925F926F927F928F929F92AF92BF92E2
:10065000CF92DF92EF92FF920F931F93CF93DF938E
:10066000FC011B0184E290E0918380834F010F2EF7
:10067000F0E0AF2EF0E0BF2EF0E0CF2EF0E0DF2E66
:10068000F02D66247724E1E04E2E512C63C1C60183
:10069000B50120E030E040E050E00E942708F4017E
:1006A000C081D181882301F5CF30D1052CF480E0C1
:1006B00090E068E070E010C0C832D1054CF080E0F6
:1006C00090E068E070E00E940803C81BD90B08C0E6
:1006D0008CEF9FEF64E070E00E940803C80FD91F01
:1006E000F401D383C2831DC1C601B50120E030E00F
:1006F00040E850E40E9481060E941D0C7B018C01A1
:10070000BE01882777FD8095982F0E94B708A80121
:1007100097010E9454067B018C0120E030E040E705
:1007200051E40E94870887FD05C0F1E06F1671044F
:1007300009F046C08BE490E064E670E00E94080394
:10074000AA2797FDA095BA2FBC01CD010E94B7083A
:1007500020E030E048EC52E40E947B07A6019501BE
:100760000E9481069B01AC015F77C601B5010E9422
:10077000540620E030E040E850E40E9481060E94E8
:100780001D0C7B018C01F40160817181882777FD4C
:100790008095982F0E94B7089B01AC01C801B70152
:1007A0000E9454060E941509F40173836283F1E0EC
:1007B0006F16710409F4B3C071E0672E712CB1C0DB
:1007C000C801B70120E030E04CE152E40E94570834
:1007D00018162CF082E06816710409F046C08BE40C
:1007E00090E064E670E00E940803AA2797FDA095B8
:1007F000BA2FBC01CD010E94B70820E030E048ECE0
:1008000052E40E947B07A60195010E9481069B018C
:10081000AC015F77C601B5010E94230620E030E0FD
:1008200040E850E40E9481060E941D0C7B018C016F
:10083000F40160817181882777FD8095982F0E944F
:10084000B7089B01AC01C801B7010E9454060E9481
:100850001509F40173836283F2E06F16710409F4E1
:100860005EC062E0662E712C5CC0C601B50120E05E
:1008700030E040E050E00E94870888239CF48CE937
:100880009FEF64E170E00E940803AA2797FDA095FE
:10089000BA2FBC01CD010E94B70820E030E048EC3F
:1008A00052E412C08CEE9FEF64E670E00E940803F1
:1008B000AA2797FDA095BA2FBC01CD010E94B708C9
:1008C00020E030E048EC52EC0E947B07A601950145
:1008D0000E9481069B01AC01C601B5010E9454062D
:1008E00020E030E040E850E40E9481060E941D0CA8
:1008F0007B018C01F40160817181882777FD8095EF
:10090000982F0E94B7089B01AC01C801B7010E9453
:1009100054060E941509F4017383628302C06624A1
:100920007724F40162817381219131914F01621B1F
:10093000730B882777FD8095982F0E94B70820E0D9
:1009400030E040E85EE30E9481065B016C010894A0
:10095000411C511C421453040CF499CEDF91CF91E9
:100960001F910F91FF90EF90DF90CF90BF90AF90CD
:100970009F908F907F906F905F904F903F902F90BF
:100980000895CF93DF9384B18C6084B9C0E0D0E048
:1009900001C02196189BFDCFCE010E94120CCE0102
:1009A0006AE070E00E947902DF91CF910895A0E0A3
:1009B000B0E0EDEDF4E00C94850BDC012B01FA01C5
:1009C0009C91923008F439C1EB018881823008F49F
:1009D00033C1943069F4843009F02FC111969C9191
:1009E00011978981981709F428C1A6EFB2E025C1B3
:1009F000843009F421C18230A9F4923009F01DC17C
:100A00009A01AD0188E0EA010990AE01E90109927D
:100A10009E018150C1F7E201898111969C91892341
:100A2000818308C1923009F407C112962D903C9041
:100A30001397EB018A819B811496AD90BD90CD9068
:100A4000DC901797EC80FD800E811F819101281B9F
:100A5000390BB90137FF04C066277727621B730B78
:100A6000603271050CF061C0121613066CF5370187
:100A70004801062E04C096948794779467940A944C
:100A8000D2F721E030E040E050E004C0220F331FF5
:100A9000441F551F6A95D2F72150304040405040C6
:100AA0002E213F21402351232115310541055105B8
:100AB00021F021E030E040E050E079018A01E628B1
:100AC000F728082919293CC0232BD1F1260E371EFF
:100AD00035014601062E04C0969487947794679456
:100AE0000A94D2F721E030E040E050E004C0220F49
:100AF000331F441F551F6A95D2F7215030404040A4
:100B000050402A213B214C215D2121153105410511
:100B1000510521F021E030E040E050E059016A0148
:100B2000A628B728C828D9280BC0821593052CF011
:100B30001C01AA24BB24650103C0EE24FF24870105
:100B400011969C91D20111968C91981709F445C089
:100B5000992339F0A80197012A193B094C095D092D
:100B600006C0A60195012E193F09400B510B57FDF8
:100B700008C01182338222822483358346835783BF
:100B80001DC081E081833382228288279927DC017E
:100B9000821B930BA40BB50B84839583A683B78329
:100BA0000DC0220F331F441F551F248335834683F6
:100BB0005783828193810197938382832481358136
:100BC00046815781DA01C9010197A109B1098F5FF7
:100BD0009F4FAF4FBF4328F30BC0918333822282D4
:100BE000EA0CFB1C0C1D1D1DE482F5820683178395
:100BF00083E08083248135814681578157FF1AC065
:100C0000C901AA2797FDA095BA2F81709070A07096
:100C1000B0705695479537952795822B932BA42B2B
:100C2000B52B84839583A683B783828193810196B4
:100C300093838283DF0101C0D201CD01CDB7DEB73E
:100C4000E2E10C94A10BA0E2B0E0E9E2F6E00C9442
:100C5000910B69837A838B839C832D833E834F839F
:100C60005887E9E0EE2EF12CEC0EFD1ECE01019628
:100C7000B7010E948D0A8E010F5E1F4FCE010596AF
:100C8000B8010E948D0A8A8991E089278A8BC70161
:100C9000B801AE01475E5F4F0E94D7040E94B809B9
:100CA000A096E6E00C94AD0BA0E2B0E0EAE5F6E039
:100CB0000C94910B69837A838B839C832D833E8371
:100CC0004F835887F9E0EF2EF12CEC0EFD1ECE017C
:100CD0000196B7010E948D0A8E010F5E1F4FCE0153
:100CE0000596B8010E948D0AC701B801AE01475EA2
:100CF0005F4F0E94D7040E94B809A096E6E00C94CA
:100D0000AD0BA0E2B0E0E7E8F6E00C94850B698358
:100D10007A838B839C832D833E834F835887CE01B8
:100D20000196BE01675F7F4F0E948D0ACE01059636
:100D3000BE016F5E7F4F0E948D0A9985923088F0C8
:100D400089898230C8F0943019F4823051F404C09B
:100D5000843029F4923081F486EF92E0C6C092305C
:100D600049F420E09A858A89981321E02A87CE01E8
:100D70000996BBC0823049F420E09A858A8998138D
:100D800021E02A8BCE014196B0C02D843E844F8451
:100D900058886D887E888F88988CEE24FF24870180
:100DA000AA24BB24650140E050E060E070E0E0E090
:100DB000F0E0C10181709070892BE9F0E60CF71C1E
:100DC000081D191D9A01AB012A0D3B1D4C1D5D1D0F
:100DD00080E090E0A0E0B0E0E614F7040805190513
:100DE00020F481E090E0A0E0B0E0BA01A901480F52
:100DF000591F6A1F7B1FAA0CBB1CCC1CDD1C97FE55
:100E000008C081E090E0A0E0B0E0A82AB92ACA2A90
:100E1000DB2A3196E032F10549F0660C771C881C1C
:100E2000991C5694479437942794C3CFFA85EA893E
:100E30002B893C898B859C85280F391F2E5F3F4F5E
:100E400017C0CA0181709070892B61F016950795C3
:100E5000F794E79480E090E0A0E0B0E8E82AF92A6F
:100E60000A2B1B2B76956795579547952F5F3F4F1C
:100E700077FDE7CF0CC0440F551F661F771F17FD86
:100E80004160EE0CFF1C001F111F2150304040300C
:100E900090E0590790E0690790E4790760F32B8FA1
:100EA0003C8FDB01CA018F779070A070B0708034E6
:100EB0009105A105B10561F447FD0AC0E114F104F3
:100EC0000105110529F0405C5F4F6F4F7F4F40785F
:100ED0001A8EFE1711F081E08A8F4D8F5E8F6F8F13
:100EE00078A383E0898FCE0149960E94B809A09625
:100EF000E2E10C94A10BA8E1B0E0E1E8F7E00C948A
:100F00008D0B69837A838B839C832D833E834F83F0
:100F10005887B9E0EB2EF12CEC0EFD1ECE010196A8
:100F2000B7010E948D0A8E010F5E1F4FCE010596FC
:100F3000B8010E948D0A2985223008F47EC03989C3
:100F4000323010F4B8017CC08A859A8989278A8753
:100F5000243011F0223031F4231709F06EC066EF0F
:100F600072E06EC0343039F41D861E861F86188AE2
:100F70001C861B8604C0323021F484E08987B701C7
:100F80005FC02B853C858B899C89281B390B3C874E
:100F90002B87ED84FE840F851889AD88BE88CF88A5
:100FA000D88CEA14FB040C051D0540F4EE0CFF1C64
:100FB000001F111F215030403C872B8720E030E07C
:100FC00040E050E080E090E0A0E0B0E460E070E05D
:100FD000EA14FB040C051D0540F0282B392B4A2B85
:100FE0005B2BEA18FB080C091D09B695A795979588
:100FF0008795EE0CFF1C001F111F6F5F7F4F6F3135
:10100000710531F7DA01C9018F779070A070B07067
:1010100080349105A105B10561F427FD0AC0E114F2
:10102000F1040105110529F0205C3F4F4F4F5F4F40
:1010300020782D873E874F87588BBE01675F7F4F93
:10104000CB010E94B8096896EAE00C94A90BA8E1CC
:10105000B0E0EDE2F8E00C94910B69837A838B8326
:101060009C832D833E834F83588789E0E82EF12CA3
:10107000EC0EFD1ECE010196B7010E948D0A8E0175
:101080000F5E1F4FCE010596B8010E948D0A89851B
:10109000823040F08989823028F0C701B8010E946F
:1010A000050B01C081E06896E6E00C94AD0BA8E169
:1010B000B0E0EDE5F8E00C94910B69837A838B83C3
:1010C0009C832D833E834F83588789E0E82EF12C43
:1010D000EC0EFD1ECE010196B7010E948D0A8E0115
:1010E0000F5E1F4FCE010596B8010E948D0A8985BB
:1010F000823040F08989823028F0C701B8010E940F
:10110000050B01C08FEF6896E6E00C94AD0BA8E1EB
:10111000B0E0EDE8F8E00C94910B69837A838B835F
:101120009C832D833E834F83588789E0E82EF12CE2
:10113000EC0EFD1ECE010196B7010E948D0A8E01B4
:101140000F5E1F4FCE010596B8010E948D0A89855A
:10115000823040F08989823028F0C701B8010E94AE
:10116000050B01C081E06896E6E00C94AD0BA8E0A9
:10117000B0E0EDEBF8E00C948E0B9B01AC0183E04A
:101180008983DA01C9018827B7FD83959927AA27A2
:10119000BB27B82E211531054105510519F482E010
:1011A00089833AC08823A9F0203080E0380780E0A6
:1011B000480780E8580729F460E070E080E09FEC81
:1011C00030C0EE24FF248701E21AF30A040B150B4A
:1011D00002C079018A018EE1C82ED12CDC82CB823B
:1011E000ED82FE820F831887C801B7010E9469094A
:1011F00001971816190684F4082E04C0EE0CFF1C83
:10120000001F111F0A94D2F7ED82FE820F83188708
:10121000C81AD90ADC82CB82BA82CE0101960E941A
:10122000B8092896E9E00C94AA0BACE0B0E0EBE139
:10123000F9E00C94950B69837A838B839C83CE01B0
:101240000196BE016B5F7F4F0E948D0A8D818230B7
:1012500061F1823050F1843021F48E81882351F184
:101260002EC02F81388537FD20C06E812F3131058A
:101270001CF06623F9F023C08EE190E0821B930BF3
:1012800029853A854B855C8504C0569547953795E9
:1012900027958A95D2F76623B1F050954095309501
:1012A00021953F4F4F4F5F4F0EC020E030E040E0B0
:1012B00050E009C02FEF3FEF4FEF5FE704C020E0A1
:1012C00030E040E050E8B901CA012C96E2E00C940D
:1012D000B10BEF92FF920F931F937B018C0180E083
:1012E000E81680E0F80681E0080780E0180788F437
:1012F0008FEFE816F1040105110531F028F088E0C0
:1013000090E0A0E0B0E017C080E090E0A0E0B0E0A6
:1013100012C080E0E81680E0F80680E0080781E06F
:10132000180728F088E190E0A0E0B0E004C080E178
:1013300090E0A0E0B0E020E230E040E050E0281B88
:10134000390B4A0B5B0B04C016950795F794E7948D
:101350008A95D2F7F701E250FD4F8081281B3109B1
:1013600041095109C9011F910F91FF90EF90089514
:10137000DF92EF92FF920F931F93FC01E480F580C0
:1013800006811781D1808081823048F480E090E02E
:10139000A0E1B0E0E82AF92A0A2B1B2BA5C0843073
:1013A00009F49FC0823021F4EE24FF24870105C098
:1013B000E114F1040105110519F4E0E0F0E096C034
:1013C000628173819FEF623879070CF05BC022E87D
:1013D0003FEF261B370B2A3131052CF020E030E09F
:1013E00040E050E02AC0B801A701022E04C0769563
:1013F0006795579547950A94D2F781E090E0A0E071
:10140000B0E004C0880F991FAA1FBB1F2A95D2F70E
:101410000197A109B1098E219F21A023B123009733
:10142000A105B10521F081E090E0A0E0B0E09A01D3
:10143000AB01282B392B4A2B5B2BDA01C9018F77A3
:101440009070A070B07080349105A105B10539F499
:1014500027FF09C0205C3F4F4F4F5F4F04C0215C06
:101460003F4F4F4F5F4FE0E0F0E02030A0E03A0701
:10147000A0E04A07A0E45A0710F0E1E0F0E07901AB
:101480008A0127C06038710564F5FB01E158FF4F00
:10149000D801C7018F779070A070B070803491052B
:1014A000A105B10539F4E7FE0DC080E490E0A0E0AD
:1014B000B0E004C08FE390E0A0E0B0E0E80EF91ED9
:1014C0000A1F1B1F17FF05C016950795F794E79491
:1014D000319687E016950795F794E7948A95D1F7AA
:1014E00005C0EE24FF248701EFEFF0E06E2F679533
:1014F00066276795902F9F77D794DD24D7948E2FFA
:101500008695492F462B582F5D29B701CA011F9197
:101510000F91FF90EF90DF900895FC01DB01408177
:1015200051812281622F6F7770E0221F2227221FB4
:101530009381892F880F822B282F30E0991F9927BC
:10154000991F11969C93119721153105A9F5411505
:1015500051056105710511F482E037C082E89FEF03
:1015600013969C938E9312979A01AB0167E0220F1A
:10157000331F441F551F6A95D1F783E08C930DC02C
:10158000220F331F441F551F12968D919C91139764
:10159000019713969C938E931297203080E0380722
:1015A00080E0480780E4580758F314962D933D9344
:1015B0004D935C93179708952F3F310579F44115AA
:1015C00051056105710519F484E08C93089564FF59
:1015D00003C081E08C9312C01C9210C02F57304082
:1015E00013963C932E93129783E08C9387E0440FDD
:1015F000551F661F771F8A95D1F7706414964D9317
:101600005D936D937C93179708951F93DC01FB0105
:101610009C91923008F447C08081823008F443C026
:10162000943051F411961C91843099F58181682F82
:1016300070E0611B71093FC0843021F0923031F4B9
:101640008230B9F18181882389F12DC011961C91D6
:1016500011978230F1F081811817D9F412962D91EB
:101660003C911397828193818217930794F02817F6
:101670003907BCF014968D919D910D90BC91A02DD1
:101680002481358146815781281739074A075B072E
:1016900018F4112341F00AC082179307A407B50775
:1016A00040F4112319F061E070E005C06FEF7FEFA7
:1016B00002C060E070E0CB011F91089597FB092EF6
:1016C00007260AD077FD04D00CD006D000201AF4EB
:1016D000709561957F4F0895F6F7909581959F4F8E
:1016E0000895AA1BBB1B51E107C0AA1FBB1FA61769
:1016F000B70710F0A61BB70B881F991F5A95A9F7BB
:1017000080959095BC01CD0108952F923F924F9204
:101710005F926F927F928F929F92AF92BF92CF9281
:10172000DF92EF92FF920F931F93CF93DF93CDB78A
:10173000DEB7CA1BDB0B0FB6F894DEBF0FBECDBF02
:1017400009942A88398848885F846E847D848C84D3
:101750009B84AA84B984C884DF80EE80FD800C81DC
:101760001B81AA81B981CE0FD11D0FB6F894DEBFBF
:101770000FBECDBFED010895A0E0B0E0E2ECFBE0CC
:101780000C948D0BEC01A880B980CA80DB80A11479
:10179000B104C104D10441F484E2A82E89EDB82E2D
:1017A0008BE5C82E87E0D82EC601B5012DE133EFB9
:1017B00041E050E00E94AE0C27EA31E440E050E006
:1017C0000E948F0C7B018C01C601B5012DE133EF26
:1017D00041E050E00E94AE0CCA01B9012CEE34EF9A
:1017E0004FEF5FEF0E948F0C6E0D7F1D801F911FCA
:1017F00097FF04C0615070408040904868837983AF
:101800008A839B839B013F77C901CDB7DEB7EAE0AE
:101810000C94A90B0E94BC0B08958EEF93E00E94DC
:10182000BC0B0895A0E0B0E08093FE039093FF030B
:10183000A0930004B0930104089550D0E0F09E37C7
:10184000D8F09639B8F49E3848F4672F782F882757
:10185000985FF9CF86957795679593959539D0F3ED
:10186000B62FB1706B0F711D811D20F48795779590
:101870006795939502C01CC04CC0882371F47723F0
:1018800021F09850872B762F07C0662311F49927F3
:101890000DC09051862B70E060E02AF09A95660F9B
:1018A000771F881FDAF7880F9695879597F908951F
:1018B0009F3F31F0915020F4879577956795B795C4
:1018C000880F911D9695879597F9089557FD905823
:1018D000440F551F59F05F3F71F04795880F97FBF4
:1018E000991F61F09F3F79F08795089512161306AE
:1018F0001406551FF2CF4695F1DF08C016161706DD
:101900001806991FF1CF8695710561050894089511
:10191000E894BB2766277727CB0197F90895629F44
:10192000D001739FF001829FE00DF11D649FE00DD7
:10193000F11D929FF00D839FF00D749FF00D659F38
:10194000F00D9927729FB00DE11DF91F639FB00D37
:10195000E11DF91FBD01CF011124089597FB092E48
:1019600005260ED057FD04D014D00AD0001C38F440
:1019700050954095309521953F4F4F4F5F4F0895BB
:10198000F6F790958095709561957F4F8F4F9F4F9B
:101990000895A1E21A2EAA1BBB1BFD010DC0AA1FB0
:1019A000BB1FEE1FFF1FA217B307E407F50720F0C8
:1019B000A21BB30BE40BF50B661F771F881F991F43
:1019C0001A9469F760957095809590959B01AC018C
:0A19D000BD01CF010895F894FFCF88
:1019DA00000000000000005F00000007000700147C
:1019EA007F147F14242A7F2A12231308646236493B
:1019FA005522500005030000001C2241000041222C
:101A0A001C0014083E081408083E0808005030005C
:101A1A000008080808080060600000201008040296
:101A2A003E5149453E00427F4000426151494621AC
:101A3A0041454B311814127F1027454545393C4A18
:101A4A004949300171090503364949493606494968
:101A5A00291E0036360000005636000008142241BE
:101A6A000014141414140041221408020151090626
:101A7A00324979413E7E1111117E7F494949363EEC
:101A8A00414141227F4141221C7F494949417F0905
:101A9A000909013E4149497A7F0808087F00417FC8
:101AAA0041002040413F017F081422417F404040CD
:101ABA00407F020C027F7F0408107F3E4141413E75
:101ACA007F090909063E4151215E7F0919294646C7
:101ADA004949493101017F01013F4040403F1F20F0
:101AEA0040201F3F4038403F6314081463070870C2
:101AFA0008076151494543007F414100020408102B
:101B0A00200041417F00040201020440404040405D
:101B1A00000102040020545454787F484444383861
:101B2A0044444420384444487F3854545418087E66
:101B3A000901020C5252523E7F0804047800447D87
:101B4A0040002040443D007F1028440000417F406F
:101B5A00007C041804787C08040478384444443827
:101B6A007C14141408081414187C7C08040408480B
:101B7A0054545420043F4440203C4040207C1C20C4
:101B8A0040201C3C4030403C44281028440C505013
:101B9A00503C4464544C44000836410000007F0025
:101BAA0000004136080010080810087846414678B7
:101BBA002D00300031003200330034003500360089
:101BCA003700380039000000000000000000000162
:101BDA0002020303030304040404040404040505C1
:101BEA000505050505050505050505050505060699
:101BFA00060606060606060606060606060606067B
:101C0A000606060606060606060606060606070768
:101C1A00070707070707070707070707070707074A
:101C2A00070707070707070707070707070707073A
:101C3A00070707070707070707070707070707072A
:101C4A000707070707070707070707070707080818
:101C5A0008080808080808080808080808080808FA
:101C6A0008080808080808080808080808080808EA
:101C7A0008080808080808080808080808080808DA
:101C8A0008080808080808080808080808080808CA
:101C9A0008080808080808080808080808080808BA
:101CAA0008080808080808080808080808080808AA
:101CBA00080808080808080808080808080808089A
:101CCA000808080808080808080808080808010099
:021CDA00000008
:00000001FF
